{
  "_format": "hh-sol-artifact-1",
  "contractName": "Charity",
  "sourceName": "contracts/Charity.sol",
  "abi": [
    {
      "inputs": [],
      "stateMutability": "nonpayable",
      "type": "constructor"
    },
    {
      "inputs": [
        {
          "internalType": "address",
          "name": "account",
          "type": "address"
        }
      ],
      "name": "balanceOf",
      "outputs": [
        {
          "internalType": "uint256",
          "name": "",
          "type": "uint256"
        }
      ],
      "stateMutability": "view",
      "type": "function"
    },
    {
      "inputs": [],
      "name": "balanceOfDonations",
      "outputs": [
        {
          "internalType": "uint256",
          "name": "",
          "type": "uint256"
        }
      ],
      "stateMutability": "view",
      "type": "function"
    },
    {
      "inputs": [],
      "name": "donate",
      "outputs": [],
      "stateMutability": "payable",
      "type": "function"
    },
    {
      "inputs": [],
      "name": "getAllDonaters",
      "outputs": [
        {
          "internalType": "address[]",
          "name": "",
          "type": "address[]"
        }
      ],
      "stateMutability": "view",
      "type": "function"
    },
    {
      "inputs": [],
      "name": "owner",
      "outputs": [
        {
          "internalType": "address",
          "name": "",
          "type": "address"
        }
      ],
      "stateMutability": "view",
      "type": "function"
    },
    {
      "inputs": [
        {
          "internalType": "address",
          "name": "account",
          "type": "address"
        }
      ],
      "name": "partialWithdraw",
      "outputs": [],
      "stateMutability": "payable",
      "type": "function"
    },
    {
      "inputs": [
        {
          "internalType": "address",
          "name": "account",
          "type": "address"
        }
      ],
      "name": "withdrawAll",
      "outputs": [],
      "stateMutability": "payable",
      "type": "function"
    }
  ],
  "bytecode": "0x608060405234801561001057600080fd5b5033600360006101000a81548173ffffffffffffffffffffffffffffffffffffffff021916908373ffffffffffffffffffffffffffffffffffffffff160217905550610cfb806100616000396000f3fe6080604052600436106100705760003560e01c8063e300bff31161004e578063e300bff314610108578063ed88c68e14610133578063f2b393f01461013d578063fa09e6301461015957610070565b806370a08231146100755780638da5cb5b146100b257806399b03cae146100dd575b600080fd5b34801561008157600080fd5b5061009c600480360381019061009791906108be565b610175565b6040516100a99190610a90565b60405180910390f35b3480156100be57600080fd5b506100c76101bd565b6040516100d491906109f3565b60405180910390f35b3480156100e957600080fd5b506100f26101e3565b6040516100ff9190610a90565b60405180910390f35b34801561011457600080fd5b5061011d6101ed565b60405161012a9190610a0e565b60405180910390f35b61013b61027b565b005b610157600480360381019061015291906108be565b6103a7565b005b610173600480360381019061016e91906108be565b6104f3565b005b60008060008373ffffffffffffffffffffffffffffffffffffffff1673ffffffffffffffffffffffffffffffffffffffff168152602001908152602001600020549050919050565b600360009054906101000a900473ffffffffffffffffffffffffffffffffffffffff1681565b6000600254905090565b6060600180548060200260200160405190810160405280929190818152602001828054801561027157602002820191906000526020600020905b8160009054906101000a900473ffffffffffffffffffffffffffffffffffffffff1673ffffffffffffffffffffffffffffffffffffffff1681526020019060010190808311610227575b5050505050905090565b600034116102be576040517f08c379a00000000000000000000000000000000000000000000000000000000081526004016102b590610a50565b60405180910390fd5b346000803373ffffffffffffffffffffffffffffffffffffffff1673ffffffffffffffffffffffffffffffffffffffff168152602001908152602001600020600082825461030c9190610af5565b92505081905550600015156103203361072d565b1515141561038c576001339080600181540180825580915050600190039060005260206000200160009091909190916101000a81548173ffffffffffffffffffffffffffffffffffffffff021916908373ffffffffffffffffffffffffffffffffffffffff1602179055505b346002600082825461039e9190610af5565b92505081905550565b600360009054906101000a900473ffffffffffffffffffffffffffffffffffffffff1673ffffffffffffffffffffffffffffffffffffffff163373ffffffffffffffffffffffffffffffffffffffff1614610437576040517f08c379a000000000000000000000000000000000000000000000000000000000815260040161042e90610a30565b60405180910390fd5b34600254101561047c576040517f08c379a000000000000000000000000000000000000000000000000000000000815260040161047390610a70565b60405180910390fd5b6002543414156104905761048f816104f3565b5b8073ffffffffffffffffffffffffffffffffffffffff166108fc349081150290604051600060405180830381858888f193505050501580156104d6573d6000803e3d6000fd5b5034600260008282546104e99190610b4b565b9250508190555050565b600360009054906101000a900473ffffffffffffffffffffffffffffffffffffffff1673ffffffffffffffffffffffffffffffffffffffff163373ffffffffffffffffffffffffffffffffffffffff1614610583576040517f08c379a000000000000000000000000000000000000000000000000000000000815260040161057a90610a30565b60405180910390fd5b8073ffffffffffffffffffffffffffffffffffffffff166108fc479081150290604051600060405180830381858888f193505050501580156105c9573d6000803e3d6000fd5b5060005b60018054905081101561069b57600060018281548110610616577f4e487b7100000000000000000000000000000000000000000000000000000000600052603260045260246000fd5b9060005260206000200160009054906101000a900473ffffffffffffffffffffffffffffffffffffffff16905060008060008373ffffffffffffffffffffffffffffffffffffffff1673ffffffffffffffffffffffffffffffffffffffff1681526020019081526020016000208190555050808061069390610bbb565b9150506105cd565b50600067ffffffffffffffff8111156106dd577f4e487b7100000000000000000000000000000000000000000000000000000000600052604160045260246000fd5b60405190808252806020026020018201604052801561070b5781602001602082028036833780820191505090505b5060019080519060200190610721929190610802565b50600060028190555050565b600080600090505b6001805490508110156107f7576001818154811061077c577f4e487b7100000000000000000000000000000000000000000000000000000000600052603260045260246000fd5b9060005260206000200160009054906101000a900473ffffffffffffffffffffffffffffffffffffffff1673ffffffffffffffffffffffffffffffffffffffff168373ffffffffffffffffffffffffffffffffffffffff1614156107e45760019150506107fd565b80806107ef90610bbb565b915050610735565b50600090505b919050565b82805482825590600052602060002090810192821561087b579160200282015b8281111561087a5782518260006101000a81548173ffffffffffffffffffffffffffffffffffffffff021916908373ffffffffffffffffffffffffffffffffffffffff16021790555091602001919060010190610822565b5b509050610888919061088c565b5090565b5b808211156108a557600081600090555060010161088d565b5090565b6000813590506108b881610cae565b92915050565b6000602082840312156108d057600080fd5b60006108de848285016108a9565b91505092915050565b60006108f383836108ff565b60208301905092915050565b61090881610b7f565b82525050565b61091781610b7f565b82525050565b600061092882610abb565b6109328185610ad3565b935061093d83610aab565b8060005b8381101561096e57815161095588826108e7565b975061096083610ac6565b925050600181019050610941565b5085935050505092915050565b6000610988601c83610ae4565b915061099382610c33565b602082019050919050565b60006109ab601783610ae4565b91506109b682610c5c565b602082019050919050565b60006109ce600c83610ae4565b91506109d982610c85565b602082019050919050565b6109ed81610bb1565b82525050565b6000602082019050610a08600083018461090e565b92915050565b60006020820190508181036000830152610a28818461091d565b905092915050565b60006020820190508181036000830152610a498161097b565b9050919050565b60006020820190508181036000830152610a698161099e565b9050919050565b60006020820190508181036000830152610a89816109c1565b9050919050565b6000602082019050610aa560008301846109e4565b92915050565b6000819050602082019050919050565b600081519050919050565b6000602082019050919050565b600082825260208201905092915050565b600082825260208201905092915050565b6000610b0082610bb1565b9150610b0b83610bb1565b9250827fffffffffffffffffffffffffffffffffffffffffffffffffffffffffffffffff03821115610b4057610b3f610c04565b5b828201905092915050565b6000610b5682610bb1565b9150610b6183610bb1565b925082821015610b7457610b73610c04565b5b828203905092915050565b6000610b8a82610b91565b9050919050565b600073ffffffffffffffffffffffffffffffffffffffff82169050919050565b6000819050919050565b6000610bc682610bb1565b91507fffffffffffffffffffffffffffffffffffffffffffffffffffffffffffffffff821415610bf957610bf8610c04565b5b600182019050919050565b7f4e487b7100000000000000000000000000000000000000000000000000000000600052601160045260246000fd5b7f43616e20757365206f6e6c79206f776e65722773206164647265737300000000600082015250565b7f596f75206e65656420746f207370656e64206d6f726521000000000000000000600082015250565b7f57726f6e6720616d6f756e740000000000000000000000000000000000000000600082015250565b610cb781610b7f565b8114610cc257600080fd5b5056fea26469706673582212206360661505c3b7ed5c7fdbd794c2fd8bd66a6fdc637fc969f0f59da697b6209364736f6c63430008030033",
  "linkReferences": {},
  "deployedLinkReferences": {}
}